:10096C00000000000000000000000000000000007B
:10097C00000000000000000000000000000000006B
:10098C00000000000000000000000000000000005B
:10099C00000000000000000000000000000000004B
:1009AC00000000000000000000000000000000003B
:1009BC00000000000000000000000000000000012A
:1009CC0001010303030303030303070707070707D7
:1009DC000707070F0F0F0F070F0F0F1F1F1F1F1FEB
:1009EC0000000000000000000000000000000000FB
:1009FC0000000000000000000000000000000000EB
:100A0C00000000000000000000800000000000005A
:100A1C0000000000000000000000000000000000CA
:100A2C0000000000000000000000000000000000BA
:100A3C000000000000000000000010304440507C1A
:100A4C004400000000000000000000000000000056
:100A5C00000000000000000000000000000000008A
:100A6C00000000000000000000000000000000007A
:100A7C00000000000000000000000000000000006A
:100A8C000000E0E0289CFCFCFCFCFCF8F8F8F8F812
:100A9C00F0F0F0E0C0C0800000000000000000009A
:100AAC0080808080808080C0C0E0E0E0E0E0A0003A
:100ABC000A1216242C4C58B03060E0C080000000A4
:100ACC00000000000000000000000000000000001A
:100ADC00000000000000000000000000000000000A
:100AEC0000000000000000000000000000000000FA
:100AFC00000000000000000000000080005050E8E2
:100B0C00EC60FFFFFAF6FFFFFFFFFFFFFFDFFFFFC9
:100B1C00FF83FBEF6FFFFFFFFEF8F0E0E6FFFFFF48
:100B2C00FEFFFFFFFFFFFFFFFFFFFFFFFFFFFFFFCA
:100B3C00FFFEFEFCFCF8F0E04103020D19B3CE1CE5
:100B4C00BCF8E040000000000000000000000000C5
:100B5C000000000000000000000000000000000089
:100B6C000000000000000000000000000000000079
:100B7C0000000000000000000000000133333E3F85
:100B8C002701F7FF1F3FFFFFFFFFFFFFFFFDFFFFE9
:100B9C00FFC7EFFFFFFFFFFF7F1FCFE3FFFFFFFF4D
:100BAC00FFFFFFFFFFFFFFFFFFFFFFFFFFFFFF3F09
:100BBC003F1F0F0F87834161B090C86472391C0EC0
:100BCC00070300000000000000000000000000000F
:100BDC000000000000000000000000000000000009
:100BEC0000000000000000000000000000000000F9
:100BFC0000000000000000000000000000000000E9
:100C0C000000030704191F3F3F3F1F9FDFDF5F1FDB
:100C1C000F0F0F0707030100000000000202070777
:100C2C000707070F0F07070303131111090808041F
:100C3C00040208090D0E0603030100000000000069
:100C4C000000000000000000000000000000000098
:100C5C000000000000000000000000000000000088
:100C6C000000000000000000000000000000000078
:100C7C000000000000000000000000000000000068
:100C8C000000000000000001070303030100000046
:100C9C000000000000000000000000000000000048
:100CAC000000000000000000000000000000000038
:100CBC000000000000000000000000000000000028
:100CCC000000000000000000000000000000000018
:100CDC000000000000000000000000008080808008
:100CEC0000000000000000000000000000000000F8
:100CFC0000000000000000000000000000000000E8
:100D0C0000000000000000000000000000000000D7
:100D1C0000000000000000000000000000000000C7
:100D2C0000000000000000000000000000000000B7
:100D3C0000000000000000000000008080C0C0E047
:100D4C00F0F0F8F8F8F8F8F8FCFCFCFCFCFCFCFC07
:100D5C00FEFEFEFEFEFEFFFFFFFFFFFFFFFFFFFF9D
:10110C004100CD004600C70000000000004300C4B1
:10111C000C00004200CE46284100C3004100D30021
:10112C004100C2004100C0004100D1004100D0008C
:08113C004100D2004100C10096
:1016800012122275F00A84E5F02430FB9000E37416
:1016900010F0229000D0E0FBFFC374059FFFE4949C
:1016A00000FE74C72FF58274003EF583E02290009F
:1016B000C1E0FBFFC374019FFFE49400FE74CE2FD2
:1016C000F58274003EF583E0229000D2E0FFC374FF
:1016D000029FFFE49400FE74C42FF58274003EF56F
:1016E00083E02212122275F00A84229000D1E0FFDA
:1016F00004F0EFD322E0FB7A009000DB7403F0A348
:061700007410F07D0622CA
:101000009000D41212E112120975F00A84121689A6
:101010007F181210CE1212091216837F201210E8C8
:101020009000011216E31216897F381210CE90003C
:10103000011216807F401210E89000021216E3128F
:1010400016897F581211009000021216807F6012DC
:1010500011009000031216E31216897F141210F487
:101060009000031216807D037F1C1217067F281242
:1010700010DA9000041216E31216897F381210F469
:101080009000041216807D037F401217067F4C12D9
:1010900010DA9000051216E31216897D037F5C12A8
:1010A00017069000D41212D89000051216807D0306
:1010B0007F641217061218529000E61216F57F0E82
:1010C0001213A69000E51216F57F460213A6E4FD62
:1010D0001217069000D41212D8227B3A7D03121701
:1010E000069000D41212D822E4FD1217069000D404
:1010F0001212D8227D031217069000D41212D822A1
:0C110000E4FD1217069000D41212D82251
:100D6C00120F94EE6002E112EF24FE6072146078B0
:100D7C0024026002E1129000C07401F0120F7F1285
:100D8C0010009000C0E07002E112121693FFE4FD17
:100D9C00121989121693120F8970E7EF24FE601B4B
:100DAC0024FE602514602D240470D77B017A007911
:100DBC00C71218A3E49000C0F080C79000D01216A0
:100DCC00EE940440BDE4F080B99000D0E012169887
:100DDC0004F0A18E9000D0E012169814F0A18EE4CD
:100DEC009000C2F0D2A7E1121216EB94024002E47A
:100DFC00F09000C4E0FF7D01121AEB9000C5E0FFFB
:100E0C007D01121B179000C6E0FF7D01121B439061
:100E1C0000CFE0FF7D01121CF39000CEE0FF7D01BE
:100E2C00121D0D9000D1E064017068A3E0FB121656
:100E3C00CDFFE4FD1219899000D2E0FB1216CD1201
:100E4C000F8970DFEF24FE602314602E14603614BB
:100E5C00603A240470CD9000C3E070047F018002DE
:100E6C007F009000C3EFF012144F80B79000D212A5
:100E7C0016EE940140ADE4F0C12F1216EB94024033
:100E8C00A2E4F0C12F1216C904F0C12F1216C91416
:100E9C00F0C12F9000D1E06402706B1216AEFFE42B
:100EAC00FD121C171216AEFF7D01121C17120F94A7
:100EBC00EE70E0EF24FE602314602E146032146098
:100ECC003A240470CE9000D3E070047F0180027F3E
:100EDC00009000D3EFF0121C9F80B89000C1121646
:100EEC00EE940040AEE4F0C19FE49000D1F0C19FBD
:100EFC009000C1E01216B304F0C19F9000C1E01243
:100F0C0016B314F0C19F120F7F1210009000CAE0AC
:100F1C00FF9000C4E0B5071E9000CBE0FF9000C529
:100F2C00E0B507129000CCE0FF9000C6E0B50706D4
:100F3C009000C27401F09000CFE0FF9000E6E0C397
:100F4C009F500D9000CEE0FF9000E5E0C39F40065F
:100F5C009000C27401F09000C3E060089000C2E001
:100F6C006002B2A79000D3E060089000C2E060027B
:100F7C00B2A722121C3D7B017A0079C722FF7D01AA
:080F8C00121989120F94EE22E4
:03000B00020FF2EF
:0D0FF200758CFC758A1820B00375E760321D
:101D3900758901758CFC758A18D2A9D28CD2AF220B
:1012EA007F327E00121CD9121D391215F9121A0505
:1012FA00121D8320851D3085FD7F057E00121CD9B5
:10130A00121A059000CDE004F0E0D3648094824084
:10131A0002E4F09000CDE0705F12168C7B32E4FD9F
:10132A007F0812170612168C7B30E4FD7F10121705
:10133A0006E4FBFD7F281219407B01E4FD7F481279
:10134A0019407B02E4FD7F681219407B037D06E4A5
:10135A00FF12194012168C7B2B7D067F2812170666
:10136A007B047D067F3812194012168C7B257D0678
:10137A007F5E121706120D6C9000CDE064016002C8
:10138A0041FD9000D77408F07BFF7A09796CA312AB
:0C139A0012E17B80E4FDFF12157041FDA4
:101D2700AD071FED600BE4FEEEC3946450F20E8026
:011D3700F7B4
:011D38002288
:031D5900121D5CFC
:071D5C00E4FF0FEFB401FBEF
:011D6300225D
:1017E900D287121D5CC2877F19121D27D287121D4D
:0417F90059021D5C18
:101BEF00E4FD3087FD121D59121D5CE4FE308701A4
:101BFF000E2087FD9000E9E025E0F04EF00DEDB4EA
:071C0F0008E09000E9E0FF8E
:011C160022AB
:101852001217E9D2872087483087FD2087FD121BA7
:10186200EFA907121BEFAC07121BEFAB07121BEF1E
:10187200AA07121BEFAE07C287E4FD121D5C0DED35
:10188200B407F8D287E92C2B2AB506149000E5E9B3
:10189200F09000E7ECF09000E6EBF09000E8EAF060
:0118A2002223
:10000E002121002020000000000000000000002F31
:10001E00000000000700070000147F147F14002466
:10002E002A7F2A1200626408132300364955225093
:10003E0000000503000000001C22410000004122C8
:10004E001C000014083E08140008083E08080000B2
:10005E0000A06000000808080808000060600000AA
:10006E00002010080402003E5149453E0000427F28
:10007E004000004261514946002141454B31001874
:10008E0014127F10002745454539003C4A49493036
:10009E0000017109050300364949493600064949F0
:1000AE00291E0000363600000000563600000008FB
:1000BE0014224100001414141414000041221408D8
:1000CE0000020151090600324959513E007C1211BD
:1000DE00127C007F49494936003E41414122007F52
:1000EE004141221C007F49494941007F090909010C
:1000FE00003E4149497A007F0808087F0000417F91
:10010E004100002040413F01007F08142241007F42
:10011E0040404040007F020C027F007F0408107FA9
:10012E00003E4141413E007F09090906003E415112
:10013E00215E007F091929460046494949310001CF
:10014E00017F0101003F4040403F001F2040201F23
:10015E00003F4038403F00631408146300070870E6
:10016E00080700615149454300007F414100005599
:10017E002A552A55000041417F0000040201020465
:10018E000040404040400000010204000020545452
:10019E005478007F484444380038444444200038A2
:1001AE004444487F00385454541800087E09010214
:1001BE000018A4A4A47C007F080404780000447DE9
:1001CE004000004080847D00007F10284400000025
:1001DE00417F4000007C04180478007C08040478F9
:1001EE0000384444443800FC2424241800182424E5
:1001FE0018FC007C080404080048545454200004E1
:10020E003F444020003C4040207C001C2040201CED
:10021E00003C4030403C004428102844001CA0A064
:10022E00A07C004464544C441414141414140000A0
:10023E0000000000000000000000000000000000B0
:10024E0000F8000000000000003330000000001035
:10025E000C06100C0600000000000000000040C05C
:10026E007840C0784000043F04043F04040000704E
:10027E0088FC08300000001820FF211E0000F00846
:10028E00F000E018000000211C031E211E0000F0EB
:10029E000888700000001E21232419272110101633
:1002AE000E00000000000000000000000000000032
:1002BE0000E01804020000000007182040000002B1
:1002CE000418E00000000040201807000000404025
:1002DE0080F0804040000202010F010202000E1B5E
:1002EE0091DB6E6060C000003F7FC0C0C040000068
:1002FE0000000000000080B0700000000000000050
:10030E0000000000000000010101010101010000D8
:10031E00000000000000003030000000000000006F
:10032E00000080601804006018060100000000E064
:10033E0010080810E000000F102020100F00001011
:10034E0010F8000000000020203F20200000007068
:10035E000808088870000030282422213000003060
:10036E000888884830000018202020110E00000058
:10037E00C02010F8000000070424243F240000F8D9
:10038E000888880808000019212020110E0000E0BE
:10039E00108888180000000F112020110E00003860
:1003AE000808C83808000000003F00000000007078
:1003BE00880808887000001C222121221C0000E001
:1003CE0010080810E0000000312222110F0000007A
:1003DE0000C0C0000000000000303000000000002F
:1003EE00008000000000000080600000000000009F
:1003FE008040201008000001020408102000404038
:10040E00404040404000040404040404040000087A
:10041E00102040800000002010080402010000702F
:10042E0048080808F0000000003036010000C03017
:10043E00C828E810E0000718272423140B0000003A
:10044E00C038E0000000203C23020227382008F8C4
:10045E00888888700000203F202020110E00C030B8
:10046E00080808083800071820202010080008F88F
:10047E0008080810E000203F202020100F0008F888
:10048E008888E8081000203F20202320180008F854
:10049E008888E8081000203F200003000000C030CC
:1004AE0008080838000007182020221E020008F84D
:1004BE0008000008F808203F210101213F20000814
:1004CE0008F8080800000020203F2020000000004F
:1004DE000808F8080800C08080807F00000008F837
:1004EE0088C028180800203F20012638200008F870
:1004FE00080000000000203F20202020300008F8D7
:10050E00F800F8F80800203F003F003F200008F8F0
:10051E0030C00008F808203F200007183F00E01008
:10052E0008080810E0000F10202020100F0008F817
:10053E0008080808F000203F210101010000E0102A
:10054E0008080810E0000F18242438504F0008F84F
:10055E00888888887000203F2000030C30200070AF
:10056E008808080838000038202121221C001808AD
:10057E0008F8080818000000203F2000000008F8C6
:10058E0008000008F808001F202020201F0008780F
:10059E00880000C83808000007380E010000F8086F
:1005AE0000F80008F800033C0700073C0300081899
:1005BE0068808068180820302C03032C30200838FF
:1005CE00C800C83808000000203F200000001008B6
:1005DE000808C838080020382621202018000000FE
:1005EE0000FE020202000000007F40404000000CAE
:1005FE0030C000000000000000010638C0000002FC
:10060E000202FE000000004040407F00000000009B
:10061E0004020202040000000000000000000000BE
:10062E0000000000000080808080808080800002BA
:10063E0002040000000000000000000000000000A6
:10064E008080808000000019242222223F2008F89A
:10065E00008080000000003F112020110E000000DD
:10066E00008080800000000E11202020110000006C
:10067E0000808088F800000E112020103F2000001E
:10068E00808080800000001F222222221300008022
:10069E0080F0888888180020203F2020000000006D
:1006AE00808080808000006B94949493600008F8A2
:1006BE00008080800000203F210000203F2000802D
:1006CE009898000000000020203F2020000000002D
:1006DE0000809898000000C08080807F000008F89D
:1006EE00000080808000203F24022D302000000872
:1006FE0008F8000000000020203F2020000080802D
:10070E00808080808000203F20003F20003F80803E
:10071E00008080800000203F210000203F2000004C
:10072E00808080800000001F202020201F008080FD
:10073E0000808000000080FFA12020110E0000002C
:10074E00008080808000000E112020A0FF8080801D
:10075E0080008080800020203F21200001000000CA
:10076E00808080808000003324242424190000809F
:10077E0080E0808000000000001F202000008080AC
:10078E00000000808000001F202020103F2080806D
:10079E0080000080808000010E30080601008080FD
:1007AE000080008080800F300C030C300F00008022
:1007BE008000808080000020312E0E31200080804D
:1007CE0080000080808080818E701806010000807D
:1007DE008080808080000021302C2221300000009B
:1007EE000000807C020200000000003F404000003C
:1007FE000000FF00000000000000FF0000000002EB
:10080E00027C800000000040403F00000000000617
:10081E00010102020404000000000000000000209C
:10082E0018C744444444FC444444440400000000BB
:10083E0000000000000000000000000000000404A2
:10084E00040704040404FF04040404040400000068
:10085E00000000000000000000000000000000008A
:10086E0000FE2222222222222222FE00000000006E
:10087E0000000000000000000000000000008040AA
:10088E00300F02020202020242827F0000000000CC
:10089E00000000000000000000000000000000004A
:1008AE0000FE82828282828282FE000000000000B0
:1008BE00000000000000000000000000000000002A
:1008CE0000FF40404040404040FF0000000000005C
:1008DE00000000000000000000000000000000000A
:1008EE00000000FC02E1E102FCA8A8A80000000044
:1008FE0000000000000000000000000000000000EA
:10090E000018244398BFBF9843241800000000002D
:10091E0000000000000000000000000000000000C9
:10092E000000C0F0FEFCF8F0E080000000000000C7
:10093E0000000000000000000000000000000000A9
:10094E001C7F7FFFFFFFFFFF7F3F0F0000000000B7
:0E095E0000000000000000000000000000008B
:1011440060C0000000E010080810E000000F10204C
:1011540020100F00001010F8000000000020203FB5
:10116400202000000070080808887000003028243F
:1011740022213000003008888848300000182020E0
:1011840020110E000000C02010F800000007042405
:10119400243F240000F8088888080800001921204A
:1011A40020110E0000E0108888180000000F1120A4
:1011B40020110E0000380808C83808000000003F5D
:1011C400000000000070880808887000001C2221BC
:1011D40021221C0000E010080810E0000000312269
:1011E40022110F000000C020100808E80808102091
:1011F400C000000000000708102020212121110850
:0412040007000000DF
:10177A00E4FDFCFE121BDEE4FDFC229000D7E0FF34
:10178A00A3E004FD121A41E4229000E4E075F0108F
:10179A00A429F582E435F0F583E58222F583E0FF9A
:1017AA00121D6F9000D6E004F022AC07121D7A7F5A
:1017BA0078121C61021D54A4FF9000D7E02FFFA3EA
:1017CA00E0FD22E4F0A3E02402F02224B0FFE43397
:0F17DA00FEE4FDFC229000D5E075F010A42F2254
:101CD900EF4E60157D087C07ED1DAA0470011C4AB2
:091CE90070F6EF1F70EA1E80E79F
:011CF20022CF
:091D7A00D2A4D2A3C2A3C2A42288
:07000300D2A4C2A3D2A32284
:0B1D4900121C61121D54AF04121C613B
:051D5400D2A4C2A4228C
:101C6100C2A4E4FEAD07ED5480B48004D2A3800287
:0F1C7100C2A3EF25E0FFD2A4C2A40EEEB408E593
:011C80002241
:0B1D64001217B4E4FF121D4902000337
:0B1D6F001217B47F40121D4902000350
:101BC50075F0401212CCE58229F582E43583F58360
:091BD500E493FF7E007D017C0019
:101BDE00AB07AA06ED4C6003021D6FAF03121D6426
:011BEE0022D4
:081A39009000E0E0FFA3E0FDD6
:101A4100A907ED1217D5121BDEE954F0C4540F7E1D
:101A5100004410FFE4FDFC121BDEE9540FFF7E0081
:061A6100E4FDFC021BDEA7
:101A0500E4F9E91217D512177EFF12177D7F10FE34
:101A1500121BDEE49000D4F07D017C00E4FFFE1291
:101A25001BDE9000D4E004F0E0C3948040EA09E9AD
:031A3500B408CF23
:011A3800228B
:0B1706009000E1EDF09000E0EFF0FD3E
:10171100E49000E4F0F9EB24E0F0EDD3947F40068F
:101721009000E01217CD9000E3E064107033121ABC
:1017310039E4F9121793243CF582E5833402121B34
:10174100D309E9B408ED9000E0121788F912179354
:101751002444F582E5833402121BD309E9B408ED70
:1017610022121A39E4F99000E4E075F006900014B1
:08177100121BC809E9B406EEE1
:01177900224D
:071C81009000E0EFF0A9055F
:101C88007F017E00AD0119ED600C9000E0E0FD7C65
:061C98000012124F80EE65
:011C9E002223
:0E13A6009000D7EFF0A3EDF0A3EAF0A3EBF078
:1013B400E49000DFF09000DDF09000DBE0FF9000AF
:1013C400DDE0FEC39F4002814EC3EF9E14FD7F0A01
:1013D400121C819000D9E0FCA3E0FDCFCDCFCECC90
:1013E400CE1212617C007D0A1212619000DEEDF0D3
:1013F400A3E0702E9000DBE014FF9000DDE0FEC35C
:101404009F501FA3E070159000DCE0FCC3138EF026
:101414001217C19000E3ECF07B2080239000DF746E
:1014240001F09000DCE0FEC313FFA3E0FDEF8DF0BC
:101434001217C19000DEE02430FB9000E3EEF012BE
:0A14440017069000DDE004F061BD22
:01144E00227B
:0C1800009000D4EFF0A3EDF0A31212E171
:10180C00E49000DAF09000D61212D89000DAE0F5ED
:10181C0082758300121222FB602B9000D4E0FFA390
:10182C00E0FD9000D9E09000E3F01217069000D490
:10183C00E02408F0E0D3947840031217CD9000DA3E
:05184C00E004F080C083
:011851002274
:0D1940009000D6EBF09000D4EFF0A3EDF096
:10194D00E49000D7F0121A41E4F99000D6E0900827
:10195D002C121BC59000D7E004F009E9B410EB90F0
:10196D0000D4121788F99000D6E090084C121BC5D0
:0B197D009000D7E004F009E9B410EB83
:01198800223C
:0A1570009000D4EFF09000D6EBF0ED
:10157A00E49000DBF0A3F09000D7E0FF5407700876
:10158A00EF131313541F800A9000D7E01313135458
:10159A001F049000DEF09000DEEDF09000D7E0FF2F
:1015AA009000DEE0FDC39F50459000D4E0FF121A80
:1015BA0041E09000DDF09000D6E0FF9000DDE0C34E
:1015CA009F50239000D81212D89000DBE475F001E6
:1015DA001212B685F082F583121222121BD79000DE
:0E15EA00DDE004F080D09000DEE004F080AD83
:0115F80022D0
:1015F9007FAE12177AFFFE121BDE7F1012177A7F59
:101609004012177D7FB012177D7F8112177D7FFFF2
:1016190012177D7FA112177D7FA612177D7FA81251
:10162900177D7F3F12177D7FC812177D7FD3121751
:101639007DFF12177D7FD512177D7F8012177D7F61
:10164900D812177D7F0512177D7FD912177D7FF17B
:1016590012177D7FDA12177D7F1212177D7FDB1239
:10166900177D7F3012177D7F8D12177D7F1412171A
:071679007D7FAFFE021BDEC6
:081B6F009000D7EFF0A3EDF0A8
:101B7700E4FB121A41E4FBE4FF121D6F0BEBB410F8
:101B8700F69000D7121788FBE4FF121D6F0BEBB41A
:021B970010F646
:011B99002229
:05144F009000D4EFF055
:10145400E4A3F0A3F0A3F0A37403F09000D5740AFE
:10146400F0E4D3948140069000D71217CD9000D7B2
:10147400121A3C9000D4E06046E49000D6F090004C
:10148400D6E0FFC3941050131217DF12179C2400E8
:10149400F582E58334001217A680E31217859000C5
:1014A400D6F09000D6E0FFC3941050331217DF1229
:1014B400179C2410F582E58334001217A680E3E418
:1014C4009000D6F0E41217A9E0C3941040F6121766
:0F14D400859000D6F0E41217A9E0C3941040F6FB
:0114E30022E6
:101C9F00EF7BFF60067A00790E80047A007911904D
:0D1CAF0000D97410F07D037F701218002220
:101CBC00121222FF75F00A84C454F0FEEF75F00A7C
:0D1CCC0084EE25F0FD221218F3A3EFF022A4
:051D8300C2A0C2A22273
:1019CA00D2A0EF54FEFFE4FEEF30E004D2A1800281
:1019DA00C2A1D2A2C2A2EFC313FF0EEEB408E9E479
:1019EA00FEED30E004D2A18002C2A1D2A2C2A2EDD1
:0A19FA00C313FD0EEEB408E9C2A00D
:011A040022BF
:1018F300D2A0EF4401FFE4FDEF30E004D2A1800267
:10190300C2A1D2A2C2A2EFC313FF0DEDB408E9E452
:10191300FDEEC313FE30A1054480FE8004EE547F28
:10192300FED2A2C2A20DEDB408E7C2A0EEC4540FCA
:0C193300FFEE540FFDEF75F00AA42DFF2D
:01193F002285
:1018A300E4FD7F8E1219CA900005121CBC7F8012C2
:1018B30019CA900004121CBC7F821219CA9000033B
:1018C300121CBC7F841219CA900002121CBC7F86B2
:1018D3001219CA900001121CBC7F881219CA121275
:1018E30009121CBF7F8C1219CA7D807F8E0219CA10
:101C3D007F8D1218F39000C7EFF07F89121CD27FB1
:101C4D0087121CD27F85121CD27F83121CD27F81FA
:041C5D00121CD22261
:100F940020800F3080FD7F057E00121CD97E007FEB
:100FA400012220810F3081FD7F057E00121CD97E35
:100FB400007F022220820F3082FD7F057E00121CFA
:100FC400D97E007F032220830F3083FD7F057E00BE
:100FD400121CD97E007F042220840F3084FD7F05FB
:0E0FE4007E00121CD97E007F0522E4FEFF2253
:101B9A00E075F00A84E5F02430FB9000E37410F05D
:101BAA00229000D4E0FFA3E0FD22EFFB7A00900030
:0B1BBA00DB7403F0A37410F07D062222
:101A67009000D6EFF0ED601CE075F00A84121BA120
:101A7700E4FD7F181217069000D6121B9AE4FD7F2B
:0C1A870020021706E4FD7F18121B6F22DE
:101A93009000D6EFF0ED601CE075F00A84121BA1F4
:101AA300E4FD7F381217069000D6121B9AE4FD7FDF
:0C1AB30040021706E4FD7F38121B6F2272
:101ABF009000D6EFF0ED601CE075F00A84121BA1C8
:101ACF00E4FD7F581217069000D6121B9AE4FD7F93
:0C1ADF0060021706E4FD7F58121B6F2206
:101AEB009000D6EFF0ED601CE075F00A84121BA19C
:101AFB007D037F141217069000D6121B9A7D037F6D
:0C1B0B001C0217067D037F14121B6F22C2
:101B17009000D6EFF0ED601CE075F00A84121BA16F
:101B27007D037F381217069000D6121B9A7D037F1C
:0C1B3700400217067D037F38121B6F224E
:101B43009000D6EFF0ED601CE075F00A84121BA143
:101B53007D037F5C1217069000D6121B9A7D037FCC
:0C1B6300640217067D037F5C121B6F22DA
:101CF300ED6008121BB47F260213A67D067F261211
:0A1D03001B6F7D067F2E121B6F225E
:101D0D00ED6008121BB47F680213A67D067F681272
:0A1D1D001B6F7D067F70121B6F2202
:101989009000D4EFF0A3EDF0EB1460161460191475
:10199900601C14601F14602224057024121BAB0202
:1019A9001B43121BAB021B17121BAB021AEB121BB8
:1019B900AB021ABF121BAB021A93121BAB121A67A6
:0119C90022FB
:101C17009000D4EFF0A3EDF0EB14600E0470169073
:101C270000D4E0FFA3E0FD021CF39000D4E0FFA383
:061C3700E0FD121D0D226C
:030000000214E403
:0C14E400787FE4F6D8FD75810702152B17
:10120900BB010689828A83E0225002E722BBFE02E3
:09121900E32289828A83E4932216
:10122200BB010CE58229F582E5833AF583E0225081
:1012320006E92582F8E622BBFE06E92582F8E222CB
:0D124200E58229F582E5833AF583E49322E5
:10124F00EF8DF0A4A8F0CF8CF0A428CE8DF0A42EB3
:02125F00FE226D
:10126100BC000BBE0029EF8DF084FFADF022E4CC71
:10127100F875F008EF2FFFEE33FEEC33FCEE9DEC3A
:10128100984005FCEE9DFE0FD5F0E9E4CEFD22ED80
:10129100F8F5F0EE8420D21CFEADF075F008EF2FCA
:1012A100FFED33FD4007985006D5F0F222C398FDBB
:0512B1000FD5F0EA2258
:1012B600A3F8E0C5F025F0F0E582158270021583EB
:0612C600E0C838F0E82248
:0C12CC00A42582F582E5F03583F583222D
:0912D800E0FBA3E0FAA3E0F92217
:0912E100EBF0A3EAF0A3E9F0220E
:1014F0000212EAE493A3F8E493A34003F68001F216
:1015000008DFF48029E493A3F85407240CC8C333FC
:10151000C4540F4420C8834004F456800146F6DFCB
:10152000E4800B010204081020408090110CE47E3E
:10153000019360BCA3FF543F30E509541FFEE493C0
:10154000A360010ECF54C025E060A840B8E493A387
:10155000FAE493A3F8E493A3C8C582C8CAC583CAB2
:10156000F0A3C8C582C8CAC583CADFE9DEE780BE6A
:0112080000E5
:00000001FF
